{
  "_format": "hh-sol-artifact-1",
  "contractName": "ElectionFactory",
  "sourceName": "contracts/Election.sol",
  "abi": [
    {
      "inputs": [
        {
          "internalType": "string",
          "name": "email",
          "type": "string"
        },
        {
          "internalType": "string",
          "name": "election_name",
          "type": "string"
        },
        {
          "internalType": "string",
          "name": "election_description",
          "type": "string"
        }
      ],
      "name": "createElection",
      "outputs": [],
      "stateMutability": "nonpayable",
      "type": "function"
    },
    {
      "inputs": [
        {
          "internalType": "string",
          "name": "email",
          "type": "string"
        }
      ],
      "name": "getDeployedElection",
      "outputs": [
        {
          "internalType": "address",
          "name": "",
          "type": "address"
        },
        {
          "internalType": "string",
          "name": "",
          "type": "string"
        },
        {
          "internalType": "string",
          "name": "",
          "type": "string"
        }
      ],
      "stateMutability": "view",
      "type": "function"
    }
  ],
  "bytecode": "0x608060405234801561001057600080fd5b506127c4806100206000396000f3fe60806040523480156200001157600080fd5b50600436106200003a5760003560e01c806337f46549146200003f5780634a6cf3a91462000077575b600080fd5b6200005d6004803603810190620000579190620005c1565b62000097565b6040516200006e93929190620006e0565b60405180910390f35b6200009560048036038101906200008f91906200072b565b6200032e565b005b600060608060008085604051620000af919062000826565b908152602001604051809103902060000160009054906101000a900473ffffffffffffffffffffffffffffffffffffffff169050600073ffffffffffffffffffffffffffffffffffffffff168173ffffffffffffffffffffffffffffffffffffffff16036200016d576000604051806020016040528060008152506040518060400160405280601381526020017f43726561746520616e20656c656374696f6e2e000000000000000000000000008152509350935093505062000327565b6000856040516200017f919062000826565b908152602001604051809103902060000160009054906101000a900473ffffffffffffffffffffffffffffffffffffffff16600086604051620001c3919062000826565b9081526020016040518091039020600101600087604051620001e6919062000826565b908152602001604051809103902060020181805462000205906200086e565b80601f016020809104026020016040519081016040528092919081815260200182805462000233906200086e565b8015620002845780601f10620002585761010080835404028352916020019162000284565b820191906000526020600020905b8154815290600101906020018083116200026657829003601f168201915b5050505050915080805462000299906200086e565b80601f0160208091040260200160405190810160405280929190818152602001828054620002c7906200086e565b8015620003185780601f10620002ec5761010080835404028352916020019162000318565b820191906000526020600020905b815481529060010190602001808311620002fa57829003601f168201915b50505050509050935093509350505b9193909250565b600033838360405162000341906200043d565b6200034f93929190620006e0565b604051809103906000f0801580156200036c573d6000803e3d6000fd5b5090508060008560405162000382919062000826565b908152602001604051809103902060000160006101000a81548173ffffffffffffffffffffffffffffffffffffffff021916908373ffffffffffffffffffffffffffffffffffffffff16021790555082600085604051620003e4919062000826565b9081526020016040518091039020600101908162000403919062000a7f565b508160008560405162000417919062000826565b9081526020016040518091039020600201908162000436919062000a7f565b5050505050565b611c288062000b6783390190565b6000604051905090565b600080fd5b600080fd5b600080fd5b600080fd5b6000601f19601f8301169050919050565b7f4e487b7100000000000000000000000000000000000000000000000000000000600052604160045260246000fd5b620004b48262000469565b810181811067ffffffffffffffff82111715620004d657620004d56200047a565b5b80604052505050565b6000620004eb6200044b565b9050620004f98282620004a9565b919050565b600067ffffffffffffffff8211156200051c576200051b6200047a565b5b620005278262000469565b9050602081019050919050565b82818337600083830152505050565b60006200055a6200055484620004fe565b620004df565b90508281526020810184848401111562000579576200057862000464565b5b6200058684828562000534565b509392505050565b600082601f830112620005a657620005a56200045f565b5b8135620005b884826020860162000543565b91505092915050565b600060208284031215620005da57620005d962000455565b5b600082013567ffffffffffffffff811115620005fb57620005fa6200045a565b5b62000609848285016200058e565b91505092915050565b600073ffffffffffffffffffffffffffffffffffffffff82169050919050565b60006200063f8262000612565b9050919050565b620006518162000632565b82525050565b600081519050919050565b600082825260208201905092915050565b60005b838110156200069357808201518184015260208101905062000676565b60008484015250505050565b6000620006ac8262000657565b620006b8818562000662565b9350620006ca81856020860162000673565b620006d58162000469565b840191505092915050565b6000606082019050620006f7600083018662000646565b81810360208301526200070b81856200069f565b905081810360408301526200072181846200069f565b9050949350505050565b60008060006060848603121562000747576200074662000455565b5b600084013567ffffffffffffffff8111156200076857620007676200045a565b5b62000776868287016200058e565b935050602084013567ffffffffffffffff8111156200079a57620007996200045a565b5b620007a8868287016200058e565b925050604084013567ffffffffffffffff811115620007cc57620007cb6200045a565b5b620007da868287016200058e565b9150509250925092565b600081905092915050565b6000620007fc8262000657565b620008088185620007e4565b93506200081a81856020860162000673565b80840191505092915050565b6000620008348284620007ef565b915081905092915050565b7f4e487b7100000000000000000000000000000000000000000000000000000000600052602260045260246000fd5b600060028204905060018216806200088757607f821691505b6020821081036200089d576200089c6200083f565b5b50919050565b60008190508160005260206000209050919050565b60006020601f8301049050919050565b600082821b905092915050565b600060088302620009077fffffffffffffffffffffffffffffffffffffffffffffffffffffffffffffffff82620008c8565b620009138683620008c8565b95508019841693508086168417925050509392505050565b6000819050919050565b6000819050919050565b6000620009606200095a62000954846200092b565b62000935565b6200092b565b9050919050565b6000819050919050565b6200097c836200093f565b620009946200098b8262000967565b848454620008d5565b825550505050565b600090565b620009ab6200099c565b620009b881848462000971565b505050565b5b81811015620009e057620009d4600082620009a1565b600181019050620009be565b5050565b601f82111562000a2f57620009f981620008a3565b62000a0484620008b8565b8101602085101562000a14578190505b62000a2c62000a2385620008b8565b830182620009bd565b50505b505050565b600082821c905092915050565b600062000a546000198460080262000a34565b1980831691505092915050565b600062000a6f838362000a41565b9150826002028217905092915050565b62000a8a8262000657565b67ffffffffffffffff81111562000aa65762000aa56200047a565b5b62000ab282546200086e565b62000abf828285620009e4565b600060209050601f83116001811462000af7576000841562000ae2578287015190505b62000aee858262000a61565b86555062000b5e565b601f19841662000b0786620008a3565b60005b8281101562000b315784890151825560018201915060208501945060208101905062000b0a565b8683101562000b51578489015162000b4d601f89168262000a41565b8355505b6001600288020188555050505b50505050505056fe60806040523480156200001157600080fd5b5060405162001c2838038062001c288339818101604052810190620000379190620002b7565b826000806101000a81548173ffffffffffffffffffffffffffffffffffffffff021916908373ffffffffffffffffffffffffffffffffffffffff16021790555081600190816200008891906200059c565b5080600290816200009a91906200059c565b506001600360006101000a81548160ff02191690831515021790555050505062000683565b6000604051905090565b600080fd5b600080fd5b600073ffffffffffffffffffffffffffffffffffffffff82169050919050565b60006200010082620000d3565b9050919050565b6200011281620000f3565b81146200011e57600080fd5b50565b600081519050620001328162000107565b92915050565b600080fd5b600080fd5b6000601f19601f8301169050919050565b7f4e487b7100000000000000000000000000000000000000000000000000000000600052604160045260246000fd5b6200018d8262000142565b810181811067ffffffffffffffff82111715620001af57620001ae62000153565b5b80604052505050565b6000620001c4620000bf565b9050620001d2828262000182565b919050565b600067ffffffffffffffff821115620001f557620001f462000153565b5b620002008262000142565b9050602081019050919050565b60005b838110156200022d57808201518184015260208101905062000210565b60008484015250505050565b6000620002506200024a84620001d7565b620001b8565b9050828152602081018484840111156200026f576200026e6200013d565b5b6200027c8482856200020d565b509392505050565b600082601f8301126200029c576200029b62000138565b5b8151620002ae84826020860162000239565b91505092915050565b600080600060608486031215620002d357620002d2620000c9565b5b6000620002e38682870162000121565b935050602084015167ffffffffffffffff811115620003075762000306620000ce565b5b620003158682870162000284565b925050604084015167ffffffffffffffff811115620003395762000338620000ce565b5b620003478682870162000284565b9150509250925092565b600081519050919050565b7f4e487b7100000000000000000000000000000000000000000000000000000000600052602260045260246000fd5b60006002820490506001821680620003a457607f821691505b602082108103620003ba57620003b96200035c565b5b50919050565b60008190508160005260206000209050919050565b60006020601f8301049050919050565b600082821b905092915050565b600060088302620004247fffffffffffffffffffffffffffffffffffffffffffffffffffffffffffffffff82620003e5565b620004308683620003e5565b95508019841693508086168417925050509392505050565b6000819050919050565b6000819050919050565b60006200047d62000477620004718462000448565b62000452565b62000448565b9050919050565b6000819050919050565b62000499836200045c565b620004b1620004a88262000484565b848454620003f2565b825550505050565b600090565b620004c8620004b9565b620004d58184846200048e565b505050565b5b81811015620004fd57620004f1600082620004be565b600181019050620004db565b5050565b601f8211156200054c576200051681620003c0565b6200052184620003d5565b8101602085101562000531578190505b620005496200054085620003d5565b830182620004da565b50505b505050565b600082821c905092915050565b6000620005716000198460080262000551565b1980831691505092915050565b60006200058c83836200055e565b9150826002028217905092915050565b620005a78262000351565b67ffffffffffffffff811115620005c357620005c262000153565b5b620005cf82546200038b565b620005dc82828562000501565b600060209050601f831160018114620006145760008415620005ff578287015190505b6200060b85826200057e565b8655506200067b565b601f1984166200062486620003c0565b60005b828110156200064e5784890151825560018201915060208501945060208101905062000627565b868310156200066e57848901516200066a601f8916826200055e565b8355505b6001600288020188555050505b505050505050565b61159580620006936000396000f3fe608060405234801561001057600080fd5b50600436106100885760003560e01c8063b224c40a1161005b578063b224c40a14610119578063cde9370f14610135578063e8685ba114610169578063ed836bc31461018757610088565b806342b03cc91461008d57806365fc783c146100a95780636d6277f4146100c7578063a15148d1146100fb575b600080fd5b6100a760048036038101906100a29190610e0c565b6101a6565b005b6100b1610336565b6040516100be9190610eff565b60405180910390f35b6100e160048036038101906100dc9190610f46565b61034d565b6040516100f2959493929190610ff2565b60405180910390f35b6101036105b0565b6040516101109190610eff565b60405180910390f35b610133600480360381019061012e9190611061565b610714565b005b61014f600480360381019061014a9190610f46565b61088e565b604051610160959493929190610ff2565b60405180910390f35b610171610b74565b60405161017e9190610eff565b60405180910390f35b61018f610b8b565b60405161019d9291906110bd565b60405180910390f35b60008054906101000a900473ffffffffffffffffffffffffffffffffffffffff1673ffffffffffffffffffffffffffffffffffffffff163373ffffffffffffffffffffffffffffffffffffffff1614610234576040517f08c379a000000000000000000000000000000000000000000000000000000000815260040161022b90611140565b60405180910390fd5b60006006600081819054906101000a900460ff16809291906102559061118f565b91906101000a81548160ff021916908360ff16021790555090506040518060a00160405280868152602001858152602001848152602001600060ff16815260200183815250600460008360ff1660ff16815260200190815260200160002060008201518160000190816102c891906113ce565b5060208201518160010190816102de91906113ce565b5060408201518160020190816102f491906113ce565b5060608201518160030160006101000a81548160ff021916908360ff160217905550608082015181600401908161032b91906113ce565b509050505050505050565b6000600660019054906101000a900460ff16905090565b6004602052806000526040600020600091509050806000018054610370906111e7565b80601f016020809104026020016040519081016040528092919081815260200182805461039c906111e7565b80156103e95780601f106103be576101008083540402835291602001916103e9565b820191906000526020600020905b8154815290600101906020018083116103cc57829003601f168201915b5050505050908060010180546103fe906111e7565b80601f016020809104026020016040519081016040528092919081815260200182805461042a906111e7565b80156104775780601f1061044c57610100808354040283529160200191610477565b820191906000526020600020905b81548152906001019060200180831161045a57829003601f168201915b50505050509080600201805461048c906111e7565b80601f01602080910402602001604051908101604052809291908181526020018280546104b8906111e7565b80156105055780601f106104da57610100808354040283529160200191610505565b820191906000526020600020905b8154815290600101906020018083116104e857829003601f168201915b5050505050908060030160009054906101000a900460ff169080600401805461052d906111e7565b80601f0160208091040260200160405190810160405280929190818152602001828054610559906111e7565b80156105a65780601f1061057b576101008083540402835291602001916105a6565b820191906000526020600020905b81548152906001019060200180831161058957829003601f168201915b5050505050905085565b60008060009054906101000a900473ffffffffffffffffffffffffffffffffffffffff1673ffffffffffffffffffffffffffffffffffffffff163373ffffffffffffffffffffffffffffffffffffffff1614610641576040517f08c379a000000000000000000000000000000000000000000000000000000000815260040161063890611140565b60405180910390fd5b600080600460008060ff16815260200190815260200160002060030160009054906101000a900460ff1690506000600190505b600660009054906101000a900460ff1660ff168160ff16101561070b578160ff16600460008360ff1660ff16815260200190815260200160002060030160009054906101000a900460ff1660ff1611156106f857600460008260ff1660ff16815260200190815260200160002060030160009054906101000a900460ff1691508092505b80806107039061118f565b915050610674565b50819250505090565b60058160405161072491906114dc565b908152602001604051809103902060000160019054906101000a900460ff1615610783576040517f08c379a000000000000000000000000000000000000000000000000000000000815260040161077a9061153f565b60405180910390fd5b60405180604001604052808360ff168152602001600115158152506005826040516107ae91906114dc565b908152602001604051809103902060008201518160000160006101000a81548160ff021916908360ff16021790555060208201518160000160016101000a81548160ff0219169083151502179055509050506006600181819054906101000a900460ff168092919061081f9061118f565b91906101000a81548160ff021916908360ff16021790555050600460008360ff1660ff168152602001908152602001600020600301600081819054906101000a900460ff16809291906108719061118f565b91906101000a81548160ff021916908360ff160217905550505050565b606080606060006060600460008760ff1660ff168152602001908152602001600020600001600460008860ff1660ff168152602001908152602001600020600101600460008960ff1660ff168152602001908152602001600020600201600460008a60ff1660ff16815260200190815260200160002060030160009054906101000a900460ff16600460008b60ff1660ff16815260200190815260200160002060040184805461093d906111e7565b80601f0160208091040260200160405190810160405280929190818152602001828054610969906111e7565b80156109b65780601f1061098b576101008083540402835291602001916109b6565b820191906000526020600020905b81548152906001019060200180831161099957829003601f168201915b505050505094508380546109c9906111e7565b80601f01602080910402602001604051908101604052809291908181526020018280546109f5906111e7565b8015610a425780601f10610a1757610100808354040283529160200191610a42565b820191906000526020600020905b815481529060010190602001808311610a2557829003601f168201915b50505050509350828054610a55906111e7565b80601f0160208091040260200160405190810160405280929190818152602001828054610a81906111e7565b8015610ace5780601f10610aa357610100808354040283529160200191610ace565b820191906000526020600020905b815481529060010190602001808311610ab157829003601f168201915b50505050509250808054610ae1906111e7565b80601f0160208091040260200160405190810160405280929190818152602001828054610b0d906111e7565b8015610b5a5780601f10610b2f57610100808354040283529160200191610b5a565b820191906000526020600020905b815481529060010190602001808311610b3d57829003601f168201915b505050505090509450945094509450945091939590929450565b6000600660009054906101000a900460ff16905090565b60608060016002818054610b9e906111e7565b80601f0160208091040260200160405190810160405280929190818152602001828054610bca906111e7565b8015610c175780601f10610bec57610100808354040283529160200191610c17565b820191906000526020600020905b815481529060010190602001808311610bfa57829003601f168201915b50505050509150808054610c2a906111e7565b80601f0160208091040260200160405190810160405280929190818152602001828054610c56906111e7565b8015610ca35780601f10610c7857610100808354040283529160200191610ca3565b820191906000526020600020905b815481529060010190602001808311610c8657829003601f168201915b50505050509050915091509091565b6000604051905090565b600080fd5b600080fd5b600080fd5b600080fd5b6000601f19601f8301169050919050565b7f4e487b7100000000000000000000000000000000000000000000000000000000600052604160045260246000fd5b610d1982610cd0565b810181811067ffffffffffffffff82111715610d3857610d37610ce1565b5b80604052505050565b6000610d4b610cb2565b9050610d578282610d10565b919050565b600067ffffffffffffffff821115610d7757610d76610ce1565b5b610d8082610cd0565b9050602081019050919050565b82818337600083830152505050565b6000610daf610daa84610d5c565b610d41565b905082815260208101848484011115610dcb57610dca610ccb565b5b610dd6848285610d8d565b509392505050565b600082601f830112610df357610df2610cc6565b5b8135610e03848260208601610d9c565b91505092915050565b60008060008060808587031215610e2657610e25610cbc565b5b600085013567ffffffffffffffff811115610e4457610e43610cc1565b5b610e5087828801610dde565b945050602085013567ffffffffffffffff811115610e7157610e70610cc1565b5b610e7d87828801610dde565b935050604085013567ffffffffffffffff811115610e9e57610e9d610cc1565b5b610eaa87828801610dde565b925050606085013567ffffffffffffffff811115610ecb57610eca610cc1565b5b610ed787828801610dde565b91505092959194509250565b600060ff82169050919050565b610ef981610ee3565b82525050565b6000602082019050610f146000830184610ef0565b92915050565b610f2381610ee3565b8114610f2e57600080fd5b50565b600081359050610f4081610f1a565b92915050565b600060208284031215610f5c57610f5b610cbc565b5b6000610f6a84828501610f31565b91505092915050565b600081519050919050565b600082825260208201905092915050565b60005b83811015610fad578082015181840152602081019050610f92565b60008484015250505050565b6000610fc482610f73565b610fce8185610f7e565b9350610fde818560208601610f8f565b610fe781610cd0565b840191505092915050565b600060a082019050818103600083015261100c8188610fb9565b905081810360208301526110208187610fb9565b905081810360408301526110348186610fb9565b90506110436060830185610ef0565b81810360808301526110558184610fb9565b90509695505050505050565b6000806040838503121561107857611077610cbc565b5b600061108685828601610f31565b925050602083013567ffffffffffffffff8111156110a7576110a6610cc1565b5b6110b385828601610dde565b9150509250929050565b600060408201905081810360008301526110d78185610fb9565b905081810360208301526110eb8184610fb9565b90509392505050565b7f4572726f723a204163636573732044656e6965642e0000000000000000000000600082015250565b600061112a601583610f7e565b9150611135826110f4565b602082019050919050565b600060208201905081810360008301526111598161111d565b9050919050565b7f4e487b7100000000000000000000000000000000000000000000000000000000600052601160045260246000fd5b600061119a82610ee3565b915060ff82036111ad576111ac611160565b5b600182019050919050565b7f4e487b7100000000000000000000000000000000000000000000000000000000600052602260045260246000fd5b600060028204905060018216806111ff57607f821691505b602082108103611212576112116111b8565b5b50919050565b60008190508160005260206000209050919050565b60006020601f8301049050919050565b600082821b905092915050565b60006008830261127a7fffffffffffffffffffffffffffffffffffffffffffffffffffffffffffffffff8261123d565b611284868361123d565b95508019841693508086168417925050509392505050565b6000819050919050565b6000819050919050565b60006112cb6112c66112c18461129c565b6112a6565b61129c565b9050919050565b6000819050919050565b6112e5836112b0565b6112f96112f1826112d2565b84845461124a565b825550505050565b600090565b61130e611301565b6113198184846112dc565b505050565b5b8181101561133d57611332600082611306565b60018101905061131f565b5050565b601f8211156113825761135381611218565b61135c8461122d565b8101602085101561136b578190505b61137f6113778561122d565b83018261131e565b50505b505050565b600082821c905092915050565b60006113a560001984600802611387565b1980831691505092915050565b60006113be8383611394565b9150826002028217905092915050565b6113d782610f73565b67ffffffffffffffff8111156113f0576113ef610ce1565b5b6113fa82546111e7565b611405828285611341565b600060209050601f8311600181146114385760008415611426578287015190505b61143085826113b2565b865550611498565b601f19841661144686611218565b60005b8281101561146e57848901518255600182019150602085019450602081019050611449565b8683101561148b5784890151611487601f891682611394565b8355505b6001600288020188555050505b505050505050565b600081905092915050565b60006114b682610f73565b6114c081856114a0565b93506114d0818560208601610f8f565b80840191505092915050565b60006114e882846114ab565b915081905092915050565b7f4572726f723a596f752063616e6e6f7420646f75626c6520766f746500000000600082015250565b6000611529601c83610f7e565b9150611534826114f3565b602082019050919050565b600060208201905081810360008301526115588161151c565b905091905056fea26469706673582212203a096aa066d491126756ecf43ed06c1c06fa35bb304c7ba5488f338a06163b3064736f6c63430008140033a2646970667358221220e5c273d77cee56f2c7f91300ea8d50c8482d0e04f27176a79ebee0e9673fcfcd64736f6c63430008140033",
  "linkReferences": {},
  "deployedLinkReferences": {}
}